:020000040800F2
:10000000F0070020D50100081D0300081F030008A9
:1000100023030008270300082B030008000000004A
:100020000000000000000000000000002F03000896
:100030003103000800000000330300083503000806
:10004000EF010008EF010008EF010008EF010008D0
:10005000EF010008EF010008EF010008EF010008C0
:10006000EF010008EF010008EF010008EF010008B0
:10007000EF010008EF010008EF010008EF010008A0
:10008000EF010008EF010008EF010008EF01000890
:10009000EF010008EF010008EF010008EF01000880
:1000A000EF010008EF010008EF010008EF01000870
:1000B000EF010008EF010008EF010008EF01000860
:1000C000EF010008EF010008EF010008EF01000850
:1000D000EF01000891120008C71F0008EF01000897
:1000E000EF010008EF010008EF010008EF01000830
:1000F000EF010008EF010008EF010008EF01000820
:10010000EF010008EF010008EF010008EF0100080F
:10011000EF010008EF010008EF010008EF010008FF
:10012000EF010008EF010008EF010008EF010008EF
:1001300000F002F800F03FF80AA090E8000C8244BA
:100140008344AAF10107DA4501D100F034F8AFF297
:10015000090EBAE80F0013F0010F18BFFB1A43F0A5
:1001600001031847002F0000202F0000103A24BF81
:1001700078C878C1FAD8520724BF30C830C144BF0C
:1001800004680C607047000000230024002500264E
:10019000103A28BF78C1FBD8520728BF30C148BFEA
:1001A0000B607047782902F0E580002070471FB58A
:1001B0001FBD10B510BD02F0CBFA1146FFF7F7FFD7
:1001C00002F05DF802F0E9FA03B4FFF7F2FF03BCB6
:1001D00001F04AF80948804709480047FEE7FEE772
:1001E000FEE7FEE7FEE7FEE7FEE7FEE7FEE7FEE7E7
:1001F00004480549054A064B7047000017040008EB
:1002000031010008F0010020F0070020F003002079
:10021000F003002010B56FF0040000F0CCF93B486B
:1002200000683B49B0FBF1F03A4908700846007895
:1002300000EB4001C1EBC0104FF6FF7101EAC000B6
:100240003549088010BD01460020324A12784A43E1
:100250004FF0E0235A6100229A611A46126942F077
:1002600001021A6100BF4FF0E022106900F00102A4
:100270001AB100F48032002AF5D04FF0E022126962
:1002800022F001024FF0E0231A6100229A617047C8
:1002900001460020204A12884A434FF0E0235A6169
:1002A00000229A611A46126942F001021A6100BFE7
:1002B0004FF0E022106900F001021AB100F4803220
:1002C000002AF5D04FF0E022126922F001024FF02F
:1002D000E0231A6100229A61704770B505460E4608
:1002E0002846314602F06CFC4FF47A7100FB01F4B1
:1002F00005E040F20370FFF7CBFFA4F5E164B4F52D
:10030000E16FF6D8A0B2FFF7C3FF70BD0400002074
:1003100000127A000000002002000020704700BF99
:10032000FEE700BFFEE700BFFEE700BFFEE7704745
:1003300070477047704700000CB500200190009096
:100340006C48006840F480306A49086000BF694822
:10035000006800F4003000900198401C0190009863
:1003600018B90198B0F5A06FF1D16248006800F4A7
:10037000003010B10120009001E0002000900098B2
:10038000012843D15C48006840F010005A490860D9
:100390000846006820F0030008600846006840F046
:1003A0000200086053484068524948600846406867
:1003B00048600846406840F48060486008464068ED
:1003C00020F47C1048600846406840F4E81048601B
:1003D0000846006840F08070086000BF454800682B
:1003E00000F000700028F9D04248406820F0030077
:1003F000404948600846406840F00200486000BF3D
:100400003C48406800F00C000828F9D10CBD10B53C
:10041000FFF792FF10BD10B53648006840F00100AC
:10042000344908600846406834490840314948600A
:1004300008460068324908402E49086008460068AE
:1004400020F4802008600846406820F4FE004860E0
:100450004FF41F008860FFF7DAFF4FF00060294972
:10046000086010BD10B5002100200022214B5B6800
:1004700003F00C0121B1042906D0082928D107E096
:10048000214B224C236027E01F4B204C236023E0AC
:10049000184B5B6803F47010164B5B6803F48032F2
:1004A000022303EB904022B9194B4343174C2360BE
:1004B0000DE0104B5B6803F4003323B1144B43434E
:1004C000124C236003E0104B4343104C236003E0C5
:1004D0000D4B0E4C236000BF00BF064B5B68C3F39F
:1004E00003130C4CE15C094B1B68CB40074C2360A9
:1004F00010BD000000100240002002400000FFF884
:10050000FFFFF6FE08ED00E000127A000400002074
:1005100000093D000800002031490143314A1160C3
:10052000704770B5002100230F22C47804B32D4C0E
:10053000246804F4E064C4F5E064210AC1F1040312
:10054000CA40447804FA03F1847814402143090135
:10055000254C0678A155047804F01F050124AC4011
:1005600005786D11AD0005F1E025C5F8004109E001
:10057000047804F01F050124AC401C4D0678761168
:1005800045F8264070BD1A4A0A400243154B1B1F0E
:100590001A60704739B1134A121D12680243114B99
:1005A0001B1D1A6006E00F4A121D126882430D4B94
:1005B0001B1D1A607047042808D14FF0E02109691B
:1005C00041F004014FF0E022116107E04FF0E0211B
:1005D000096921F004014FF0E02211617047000029
:1005E0000000FA050CED00E000E400E080E100E02E
:1005F00080FFFF1F10B50446CC48844208D101217A
:10060000042000F02DFB0021042000F029FB46E02F
:10061000C748844208D10121082000F021FB0021B5
:10062000082000F01DFB3AE0C248844208D10121B5
:10063000102000F015FB0021102000F011FB2EE02F
:10064000BD48844208D10121202000F009FB00218F
:10065000202000F005FB22E0B848844208D10121A7
:10066000402000F0FDFA0021402000F0F9FA16E0E9
:10067000B348844208D10121802000F0F1FA002122
:10068000802000F0EDFA0AE0AE48844207D1012153
:10069000801500F0E5FA0021A01500F0E1FA10BD88
:1006A00010B50121084600F0DBFA0021012000F01E
:1006B000D7FA10BD2DE9F0410246002500260020A2
:1006C00000230024002791F803C00CF00F0591F8D7
:1006D00003C00CF0100CBCF1000F03D091F802C065
:1006E0004CEA050591F800C0BCF1000F31D0146848
:1006F00000202BE04FF0010C0CFA00F3B1F800C021
:100700000CEA03069E4220D183004FF00F0C0CFA36
:1007100003F7BC4305FA03FC4CEA040491F803C058
:10072000BCF1280F06D14FF0010C0CFA00FCC2F806
:1007300014C00AE091F803C0BCF1480F05D14FF096
:10074000010C0CFA00FCC2F810C0401C0828D1D3E0
:100750001460B1F800C0BCF1FF0F34DD5468002014
:100760002EE000F1080C4FF0010808FA0CF3B1F884
:1007700000C00CEA03069E4221D183004FF00F0C0B
:100780000CFA03F7BC4305FA03FC4CEA040491F8A5
:1007900003C0BCF1280F05D100F1080C08FA0CF8D1
:1007A000C2F8148091F803C0BCF1480F07D100F1E2
:1007B000080C4FF0010808FA0CF8C2F81080401C31
:1007C0000828CED35460BDE8F0814FF6FF71018058
:1007D000022181700421C170704702460020936895
:1007E0000B400BB1012000E00020704701468868F3
:1007F00080B2704702460020D3680B400BB1012045
:1008000000E0002070470146C86880B2704701616F
:100810007047416170470AB1016100E04161704772
:10082000C16070474FF480320A4382618161826106
:1008300082698269704702460020434B18684FF670
:100840008073184040EA021008433F4B186070471D
:100850003E49C8617047F0B50A46002300240021D4
:10086000002500F00046B6F1004F02D1364EF16986
:1008700001E0354E7168C0F3034583B200F44016C1
:10088000B6F5401F08D121F070612F4E766826F032
:1008900070662D4F7E6012E000F48016B6F5801F62
:1008A00006D1032606FA05F4A14341F0706106E083
:1008B000460D360103FA06F6B14341F0706122B1EC
:1008C000460D360103FA06F6314300F00046B6F154
:1008D000004F02D11C4EF16101E01B4E7160F0BD72
:1008E00030B500228B071C0F0F2303FA04F2164BBE
:1008F00008338C1053F824309343134C08348D1074
:1009000044F8253023468C1053F824308C07240FEC
:1009100000FA04F423430C4C08348D1044F82530BD
:1009200030BD0A49DC310860704700000008014012
:10093000000C01400010014000140140001801406B
:10094000001C014000200140000001400000204246
:10095000DF48006840F00100DD4908600846406853
:10096000DC490840DA49486008460068DA4908402E
:10097000D74908600846006820F4802008600846CF
:10098000406820F4FE0048604FF41F008860704704
:10099000CF49096821F48031CD4A116011460968B8
:1009A00021F480211160B0F5803F03D0B0F5802F95
:1009B0000ED106E0C649096841F48031C44A11608D
:1009C00007E0C349096841F4A021C14A116000E071
:1009D00000BF00BF704710B5014600220023002071
:1009E0004A11012A02D1BA4C236806E0022A02D138
:1009F000B74C236A01E0B64C636A01F01F02012480
:100A000094401C400CB1012000E0002010BD38B51E
:100A1000002000900024002500BF3120FFF7DBFFFD
:100A200005460098401C00900098B0F5A06F01D0DA
:100A3000002DF2D03120FFF7CEFF08B1012400E0F5
:100A40000024204638BD01460020A14A106820F04D
:100A5000F80040EAC10010607047A0490860704784
:100A6000024600209A4B586820F47C1042EA0103A9
:100A70001843974B5860704798490866704701467D
:100A80000020934A506820F00300084350607047EC
:100A90008F48406800F00C007047014600208C4AE7
:100AA000506820F0F0000843506070470146002075
:100AB000874A506820F4E060084350607047014660
:100AC0000020834A506820F4605040EAC100506022
:100AD000704729B17E4A527A02437D4B5A7204E034
:100AE0007B4A527A82437A4B5A7270477B49D8319B
:100AF0000860704701460020754A506820F4404065
:100B00000843506070470021714A20321170704ACA
:100B100082F82010012802D004280AD104E0012123
:100B20006B4A2032117005E00521694A20321170AC
:100B300000E000BF00BF7047694908607047644922
:100B4000096A0143624A1162704765494439086085
:100B5000704730B500210022002400235C4D6D68F1
:100B600005F00C0121B1042905D0082923D105E0A5
:100B70005C4D056022E05B4D05601FE0544D6D68E3
:100B800005F47012524D6D6805F48034022505EBB2
:100B900092421CB9544D554305600BE04C4D6D68B5
:100BA00005F400351DB1504D5543056002E04D4D33
:100BB0005543056002E04B4D056000BF00BF444D4A
:100BC0006D6805F0F0010909484D6B5C0568DD4072
:100BD00045603F4D6D6805F4E061090A434D6B5C6B
:100BE0004568DD4085603A4D6D6805F46051C90A7D
:100BF0003E4D6B5C4568DD40C560354D6D6805F464
:100C00004041890B3A4D6B5CC568B5FBF3F5056156
:100C100030BD29B12E4A526902432D4B5A6104E07E
:100C20002B4A526982432A4B5A61704729B1284A9C
:100C300092690243264B9A6104E0254A92698243F5
:100C4000234B9A61704729B1214AD2690243204B54
:100C5000DA6104E01E4AD26982431D4BDA617047B3
:100C600029B11B4AD2680243194BDA6004E0184AE2
:100C7000D2688243164BDA60704729B1144A126970
:100C80000243134B1A6104E0114A12698243104B6C
:100C90001A61704712494039086070470F49C864AB
:100CA00070470B49C87170470948406A40F080702E
:100CB00007494862704701460020054A92680A4089
:100CC0000AB1012000E00020704701498872704796
:100CD000001002400000FFF8FFFFF6FE0000424255
:100CE0008004424200127A0000093D0018000020F2
:100CF0002800002010B50446FB48844209D1012198
:100D00008803FFF7ADFF00214FF48040FFF7A8FFF5
:100D100032E0F648844209D101214804FFF7ADFFD3
:100D200000214FF40030FFF7A8FF25E0F04884428F
:100D300009D101218804FFF7A0FF00214FF4802092
:100D4000FFF79BFF18E0EB48844209D10121C8045A
:100D5000FFF793FF00214FF40020FFF78EFF0BE019
:100D6000E548844208D101210805FFF786FF0021EC
:100D70004FF48010FFF781FF10BD2DE9F04786B0DA
:100D800005460E460024A24600BFA1460027B089B2
:100D900000B100BF2F462C8A4CF6FF700440F0884B
:100DA00004432C82AC894EF6F3100440B08831899C
:100DB0000843718908430443AC81AC8A4FF6FF4075
:100DC0000440B0890443AC8201A8FFF7C2FEC648C4
:100DD000874202D1DDF810A001E0DDF80CA0A8895F
:100DE00000F4004040B10AEBCA0000EB0A10316881
:100DF0004900B0FBF1F807E00AEBCA0000EB0A106B
:100E000031688900B0FBF1F86420B8FBF0F0040110
:100E10002009642101FB1089A88900F4004040B139
:100E2000322000EBC900B0FBF1F000F007000443F2
:100E300008E0322000EB09106421B0FBF1F000F073
:100E40000F0004432C8106B0BDE8F0874FF4165123
:100E5000016000218180C18001810C21418100213C
:100E60008181704710B502460020108A4FF2FF03BF
:100E700018400B884C8823438C882343CC88234319
:100E80001843108210BD0021018041808180C18003
:100E9000704721B1828942F40052828104E0828944
:100EA0004DF6FF731A4082817047F0B50346002467
:100EB00000260025002040F66A17B94200D100BF85
:100EC0001846C1F3421401F01F06012707FA06F580
:100ED000012C01D10C3004E0022C01D1103000E0D3
:100EE00014301AB107682F43076002E00768AF4368
:100EF0000760F0BD1AB1838A0B43838202E0838AC4
:100F00008B4383827047028A4FF6F0731A40028245
:100F1000028A0A430282704782894FF2FF731A40A5
:100F2000828182890A438281704721B1828942F09D
:100F30000202828104E082894FF6FD731A408281A9
:100F40007047028A4FF6DF731A400282028A0A4310
:100F50000282704721B1028A42F48042028204E098
:100F6000028A4BF6FF731A4002827047C1F30802EF
:100F70008280704701468888C0F3080070478189E5
:100F800041F0010181817047028BD2B20283028B52
:100F900042EA012202837047028B02F47F420283FD
:100FA000028B0A430283704721B1828A42F02002F9
:100FB000828204E0828A4FF6DF731A408282704791
:100FC00021B1828A42F01002828204E0828A4FF6C6
:100FD000EF731A408282704721B1828A42F0080280
:100FE000828204E0828A4FF6F7731A408282704749
:100FF00021B1828942F40042828103E08289C2F3F6
:101000000E028281704721B1828A42F4006282829C
:1010100004E0828A4FF2FF731A4082827047828A0C
:101020004FF6FB731A408282828A0A43828270479B
:1010300021B1828A42F00202828204E0828A4FF663
:10104000FD731A408282704702460020B1F5007F8E
:1010500000D100BF13880B400BB1012000E000203D
:10106000704701F40072B2F5007F00D100BFCA439F
:101070000280704770B5024600240023002500203E
:1010800040F66A16B14200D100BFC1F3421501F02B
:101090001F03012606FA03F3012D02D1968933407E
:1010A00006E0022D02D1168A334001E0968A3340D1
:1010B0000C12012606FA04F41688344013B10CB160
:1010C000012000E0002070BD10B50022002340F692
:1010D0006A14A14200D100BF0A1201249440A3B2B5
:1010E000DC43048010BD0000003801400044004093
:1010F00000480040004C00400050004008B501216D
:101100004FF48270FFF792FD3020ADF800004820C8
:101110008DF8030069462A48FFF7CCFA0120ADF8A4
:10112000000028208DF8030069462648FFF7C2FA20
:1011300008BD10B5044614B10120234908702248A7
:10114000007848B301211F48FFF747FB48B9102139
:101150001B48FFF742FB20B120211948FFF73DFB58
:10116000D0B90A20FFF794F8002017490870012130
:101170001448FFF732FB08B1012010BD10211048C0
:10118000FFF72BFB08B90220F7E720210C48FFF7F7
:1011900024FB98B90320F0E701210A48FFF71DFB63
:1011A00060B910210648FFF718FB38B12021044828
:1011B000FFF713FB10B10120034908700020DCE7A2
:1011C00000200140000801402C00002008B501214A
:1011D0000802FFF72BFD4FF4E070ADF8000010207F
:1011E0008DF8030003208DF8020069461D48FFF7C3
:1011F00061FA4FF4E0711B48FFF709FB08BD10B519
:10120000044604F0010018B180211648FFF701FBE5
:1012100004F0020018B140211248FFF7FAFA04F076
:10122000040020B14FF480710E48FFF7F2FA10BDB0
:1012300010B5044604F0010018B180210948FFF7F9
:10124000E6FA04F0020018B140210648FFF7DFFA81
:1012500004F0040020B14FF480710248FFF7D7FA80
:1012600010BD00000020014000BF704703B5EE48EC
:10127000406C20F00100EC4A506401209064C2F8F8
:1012800050D01046406C40F00100506400980CBDF6
:10129000E649098801F0100141B1E449091D0988B6
:1012A000C8B2E34908700121E14A117070472DE985
:1012B000F34F83B08946484601F0AFFC0746002251
:1012C000DC4B01F0BDFC82468B46039801F0A5FC87
:1012D00007460022D84B01F0B3FC52465B46CDE9ED
:1012E000000101F015FB05460E462846314601F087
:1012F00067FC84B2204601F090FC07462A4633463C
:1013000001F09CFD824601F05BFC4FF6FF7101EAA3
:1013100000100290029840EA041084B2C748806925
:1013200044F204010843C54988610846406940F019
:1013300001004861C248006820F47F60C04908602D
:101340000846006840F6BD010843BD490860BC4836
:101350000830006840F48060B94908310860B3483B
:101360000830048042F21C00B0490C310880C020D3
:10137000AE49143108800020AB4948640846406CEF
:1013800041F290010843A8494864A848001DC86478
:1013900000200865886488658815C865A348001D15
:1013A0000866A84848660846806D42F281010843F5
:1013B0009D49886525220221084600F058F905B0AC
:1013C000BDE8F08F01B59848406C20F001009649C7
:1013D000486401208864C1F850D00846406C40F051
:1013E0000100486408BD70B50446204601F09CF831
:1013F00085B28D48406C20F001008B494864084656
:1014000085640465406C40F0010048640A20FEF7E2
:101410003FFF70BD70B505460C468348406C20F018
:10142000010081494864084685640465406C40F0C9
:10143000010048640A20FEF72BFF70BD30B502465C
:101440000B4600247A48007808B9002030BD0020FF
:10145000774D28707448806D20F00100724DA865AA
:101460002846C06DC0F5807084B2002104E0754844
:10147000405C5854481C81B2944201DD104600E0A3
:1014800020468842F3DC6F48674D6866A815E8651A
:101490002846806D40F00100A8650846D6E710B5E3
:1014A000024600236248007808B9002010BD0020E1
:1014B0005F4C20705C48806D20F001005A4CA065A4
:1014C0002046C06DC0F5807083B200210FE05D48FA
:1014D000405C5054505C28B1505C0A2802D0505CEB
:1014E0000D2802D10020505403E0481C81B29942DB
:1014F000EDDB00BF53484C4C6066A015E06520460C
:10150000806D40F00100A0650846CFE72DE9FF5F40
:10151000834615461E46BBF1000F37D1284631469B
:1015200001F04EFB8146002404E00A20B9FBF0F9EB
:10153000601CC4B2B9F1000FF7D12846314601F062
:101540003FFB8146B9F1000F04D130208DF8000037
:10155000012416E04FF0000A11E00A20B9FBF0F177
:1015600000FB11903030A4EB0A01491E0DF8010078
:101570000A20B9FBF0F90AF1010000F0FF0AA245C8
:10158000EBDB69462046FFF745FF4AE0BBF1010F60
:1015900047D100222C4B2846314601F051FB07462B
:1015A00001F00EFB8146002404E00A20B9FBF0F9AB
:1015B000601CC4B2B9F1000FF7D10022224B2846BB
:1015C000314601F03DFB074601F0FAFA8146042C52
:1015D00004DA30208DF80000601CC4B24FF0000A1D
:1015E00019E0BAF1030F05D12E20A4EB0A010DF882
:1015F00001000CE00A20B9FBF0F100FB1190303043
:10160000A4EB0A010DF801000A20B9FBF0F90AF178
:10161000010000F0FF0AA245E3DD6946601CFFF708
:10162000F9FEBDE8FF9F00000000024000380140C5
:10163000300000200000304080842E410010024025
:10164000040801403C00002000408F40404A1070D8
:10165000072222EA00003F4A11684FF6FF021140BC
:1016600041EA00213C4A11433A4A11607047F0B503
:101670000346374E3678C6F10406F4B2344E377856
:101680000F2646FA07F503FA04F6F0B201EA05065A
:1016900030430607300E314EB0545611B60006F1F5
:1016A000E026D6F8006102F01F0C012707FA0CF7BC
:1016B0003E435711BF0007F1E027C7F80061F0BDB6
:1016C00070B503460846CE1701EB9676C6F387043D
:1016D000CE1701EB9676B610A1EB8606B606350E50
:1016E0001F48806940F001001D4EB0614FEAB630DE
:1016F00050F8240003FA05F630431A4E46F8240049
:101700001948006801268E403043174E3060301D66
:1017100006680120884006431348001D066002F059
:10172000010040B110480830006801268E40304367
:101730000D4E0836306002F0020040B10A480C300D
:10174000066801208840064307480C30066070BDDB
:10175000380000200CED00E00000FA0500E400E095
:1017600000100240080001400004014008B50121BA
:101770000420FFF75BFA1020ADF8000003208DF87D
:10178000020010208DF8030069462848FEF792FFFA
:1017900001210420FFF74AFA2020ADF800000320C1
:1017A0008DF8020010208DF8030069461F48FEF7EF
:1017B00081FF01210420FFF739FA8020ADF80000F5
:1017C00003208DF8020010208DF8030069461748A9
:1017D000FEF770FF01210420FFF728FA4020ADF842
:1017E000000004208DF8030069461048FEF762FFF0
:1017F00001210820FFF71AFA0120ADF800000320AC
:101800008DF8020010208DF8030069460848FEF7A5
:1018100051FF08BD10B5FFF7A9FF01210448FEF7ED
:10182000F6FF10210148FEF7F2FF10BD000801404D
:10183000000C014070B50446002520E004F0800053
:1018400020B18021FE48FEF7E2FF03E08021FC4842
:10185000FEF7DFFFC820FEF7F6FC2021F848FEF770
:10186000D8FFC820FEF7EFFC2021F548FEF7CFFF98
:10187000C820FEF7E8FC6006040E681CC5B2082DFF
:10188000DCDB70BD70B500251CE06006040E202175
:10189000EB48FEF7BEFFC820FEF7D5FC4021E84824
:1018A000FEF79BFF012801D144F00104C820FEF798
:1018B000CAFC2021E248FEF7AAFFC820FEF7C3FCBD
:1018C000681CC5B2082DE0DB204670BD70B504462B
:1018D0007E2000EA440040F080051021D848FEF741
:1018E00098FF2846FFF7A6FFFFF7CCFF064610211A
:1018F000D348FEF78CFF304670BD70B504460D46E8
:101900007E2000EA44061021CD48FEF782FF3046D3
:10191000FFF790FF2846FFF78DFF1021C848FEF71C
:1019200076FF70BD70B505460C462846FFF7CEFF22
:10193000064646EA04012846FFF7DFFF70BD70B592
:1019400005460C462846FFF7C1FF064626EA040175
:101950002846FFF7D2FF70BD10B51420FFF7B6FF81
:10196000044604F0030018B903211420FFF7DAFF3E
:1019700010BD10B503211420FFF7E1FF10BD10B515
:101980000121B048FEF743FF0120FEF75CFC012176
:10199000AC48FEF73EFF0120FEF755FC0121A948A7
:1019A000FEF735FF0120FEF74EFC0F210120FFF767
:1019B000A4FF00BF0120FFF789FF00F010000028FE
:1019C000F8D10120FEF73FFC3D211120FFF795FFE4
:1019D0001E212D20FFF791FF00212C20FFF78DFF06
:1019E0008D212A20FFF789FF3E212B20FFF785FF5D
:1019F00040211520FFF781FF10BD10B50446412C92
:101A000024D108210846FFF79AFF3D211120FFF756
:101A100074FF86211720FFF770FF7F212620FFF734
:101A20006CFF1E212D20FFF768FF00212C20FFF7FF
:101A300064FF8D212A20FFF760FF3E212B20FFF756
:101A40005CFF0220FEF7FFFBFFF786FF10BD2DE9CC
:101A5000FE4F0646884691469A46DDF830B0BB20D8
:101A600002900020019000900C2E06D00E2E09D17D
:101A7000122001901020009005E077200190302086
:101A8000009000E000BF00BF019840F080010220FC
:101A9000FFF733FF80210420FFF751FF00210120D1
:101AA000FFF72BFF80210A20FFF73CFF002505E010
:101AB00018F805100920FFF720FF6D1C4D45F7D3DE
:101AC00031460120FFF719FF0C2E03D180210D2094
:101AD000FFF728FF4FF47A7500BF0420FFF7F6FEEA
:101AE00004466D1E35B104F0010018B9009820407D
:101AF0000028F2D080210D20FFF721FF95B30620AA
:101B0000FFF7E4FE00F01B0068BB2620029001985E
:101B1000204000F0010008B1CC2002900C2E24D10E
:101B20000A20FFF7D3FE04460C20FFF7CFFE00F09B
:101B300007072FB1601E07EBC000CBF8000002E0E2
:101B4000E000CBF8000004B90124122C00DD1224BF
:101B5000002505E00920FFF7B9FE0AF805006D1C15
:101B6000A542F7D301E0BB20029080210C20FFF7B3
:101B7000D9FE00210120FFF7C0FE0298BDE8FE8FCC
:101B800070B588B005460C4608210846FFF7D7FE19
:101B900007210D20FFF7B1FE03211420FFF7C2FE3D
:101BA0008DF80C5002A803AB012203A900900C2071
:101BB000FFF74DFF0646262E09D10298102806D1C0
:101BC0009DF80C0020709DF80D00607000E0BB26B1
:101BD000304608B070BDF0B587B005460027082133
:101BE0000846FFF7ACFE00210D20FFF786FE80219E
:101BF0000E20FFF7A4FE93208DF8080020208DF81A
:101C0000090001A802AB022202A900900C20FFF7F4
:101C10001EFF0646262E10D1002407E002A8005D14
:101C2000285502A8005D4740601CC4B2042CF5DBB7
:101C300002A8005DB84200D0BB2680210E2003E040
:101C400000080140000C0140FFF76CFE304607B071
:101C5000F0BD2DE9F04107468846154604210520D0
:101C6000FFF76DFE00210120FFF747FE80210A20CB
:101C7000FFF758FE002405E0395D0920FFF73DFE1F
:101C8000601CC4B24445F7DB03210120FFF735FE99
:101C9000FF2400BF0520FFF719FE0646601EC4B2F0
:101CA0001CB106F004000028F4D02220FFF70EFE3D
:101CB00028702120FFF70AFE6870BDE8F08170B53A
:101CC00088B0054693208DF80C0070208DF80D002B
:101CD00000208DF8120000240BE0295D03AAA01C4F
:101CE00011549DF81200295D48408DF81200601CC7
:101CF000C4B2042CF1DB0DF11302072103A8FFF796
:101D0000A8FF08210846FFF71AFE02A803AB092224
:101D100003A900900C20FFF79AFE0646262E03D159
:101D20000298182800D100E0BB26304608B070BDEC
:101D30002DE9F04387B006460F46904699468DF848
:101D400008608DF80970002406E018F8041002AA53
:101D5000A01C1154601CC4B2062CF6DB002407E062
:101D600019F8041002AA04F108001154601CC4B24E
:101D7000062CF5DB01A802AB0C2202A900900E2074
:101D8000FFF765FE0546262D05D10820FFF79EFDCD
:101D900000F0080000B9BB25284607B0BDE8F08375
:101DA000F0B587B006460F46A0208DF808008DF8E4
:101DB00009600DF10A02022102A8FFF74AFF01A8FB
:101DC00002AB042202A900900C20FFF740FE05465A
:101DD000262D08D10198042805D19DF8080000F0AF
:101DE0000F000A2800D0BB25262D22D1002404E0B4
:101DF000385D02A90855601CC4B2102CF8DB06AA95
:101E0000102102A8FFF725FF01A802AB122202A9A8
:101E100000900C20FFF71BFE0546262D08D10198E7
:101E2000042805D19DF8080000F00F000A2800D012
:101E3000BB25284607B0F0BDF0B587B005460E4675
:101E400030208DF808008DF809500DF10A020221AA
:101E500002A8FFF7FEFE01A802AB042202A900902F
:101E60000C20FFF7F4FD0746262F0CD1019890288F
:101E700009D1002404E002A8005D3055601CC4B202
:101E8000102CF8DB00E0BB27384607B0F0BD00B5EA
:101E900087B050208DF8080000208DF809000DF162
:101EA0000A02022102A8FFF7D4FE01A802AB042215
:101EB00002A900900C20FFF7CAFD262007B000BD44
:101EC000F8B504460D4617461E46002000906946A8
:101ED0005220FFF755FE6846FFF77DFE2046FFF7CC
:101EE000EEFE23462A4610216020FFF721FF27B18E
:101EF00031461020FFF7A0FF03E031461020FFF726
:101F00004FFFFFF7C4FFF8BD10B586B004460121AE
:101F10000420FEF78BFE01214804FEF794FE042006
:101F2000ADF8140018208DF8170003208DF8160066
:101F300005A93248FEF7BEFB01214804FEF79DFECD
:101F400000214FF40030FEF798FE01940020ADF818
:101F50000800ADF80A00ADF80C00ADF810000C2038
:101F6000ADF80E0001A92648FEF707FF26208DF8E0
:101F7000000003208DF801008DF8020001208DF88B
:101F800003006846FEF7CDFA012240F225511C48B5
:101F9000FEF78BFF01211A48FEF77BFF06B010BD4C
:101FA00010B504460BE000BF40211548FFF74CF880
:101FB0000028F9D014F8011B1148FEF7D7FF20784C
:101FC0000028F0D110BD10B540F225510C48FFF7A4
:101FD00051F888B10A48FEF7CDFF0A490A4A12783B
:101FE000885409480078401C074908700846007862
:101FF000322801DD0020087010BD000000080140FB
:10200000004400403C0100203900002010B532217E
:102010003D4800F0DAFA00203C49087010BD10B5C8
:1020200004462146384800F06DFA08B1012010BD81
:102030000020FCE700B59DB035A103C9CDE91B0127
:1020400035A30FCBCDE91923CDE9170136A207CA75
:1020500014AB07C337A3D3E901211868DB68CDE9C6
:102060001213CDE9100237A103C9CDE90E011822E0
:1020700036A108A800F077FA3AA3D3E90012D3E911
:102080000203CDE90603CDE904123AA207CA01AB67
:1020900007C311E01BA8FFF783FF0A20FEF7D3F860
:1020A00037A0FFF7BCFF00B107E036A0FFF79BF9B0
:1020B0004FF41670FEF7ECF8ECE700BF34A0FFF722
:1020C00092F9FFF7A3FF15E017A8FFF769FF0A20B1
:1020D000FEF7B9F82AA0FFF7A2FF18B937A0FFF75B
:1020E0009EFF00B107E038A0FFF77DF94FF41670AE
:1020F000FEF7CEF8E8E700BF36A0FFF774F9FFF768
:1021000085FF1DB000BD70473C0100203900002054
:1021100041540D0A0000000041542B43574D4F44D9
:10212000453D330D0A00000041542B4349465352AC
:102130000D0A000041542B43495053454E443D364F
:102140000D0A000073756E6E790D0A0041542B4321
:1021500049505345525645523D312C353030300DA3
:102160000A00000041542B4349504D55583D310D54
:102170000A00000041542B5253540D0A0000000085
:102180004F4B00004552524F5231200D0A000000C3
:102190004F4B2C6D637520636F6E6E656374696F52
:1021A0006E20737563636573732077697468204567
:1021B00053503832363621200D0A00006E6F2063EE
:1021C00068616E67650000004552524F5232200D23
:1021D0000A0000004F4B2C736574206D6F646520FE
:1021E00061732041502B53746174696F6E2077695D
:1021F0007468204553503832363621200D0A0000CD
:1022000010B50220FFF722FAFEF704F8FEF7DEFF12
:10221000FEF774FF4FF4E1314820FFF748F84FF420
:10222000E130FFF771FEFFF7F5FAC820FEF730F84E
:1022300010BD3EB502A95220FFF7A2FC0446262895
:1022400004D002A95220FFF79BFC0446262C14D18F
:1022500002A8FFF7C0FC26280FD19DF80B009DF8BF
:102260000A10CDE900109DF809309DF8082017A14B
:102270001B4800F043F801203EBD0020FCE74FF072
:10228000FF34FFF7BDFF17A0FFF7ADF8FFF777FBAF
:102290004120FFF7B2FB18E00020FEF74AFF04469A
:1022A000012C02D1FEF7ABFF0FE0032C03D1072076
:1022B000FEF7BEFF09E0022C07D10DA0FFF793F84F
:1022C0000220FEF79CFFFFF7B5FEE5E72530325808
:1022D0002530325825303258253032580000000061
:1022E0006E01002074657374202E2E2E2E0D0A00B0
:1022F000B0B4BCFC320D0A00704700000FB41CB52E
:10230000074B06AA7B4469460090059800F0E1F966
:102310000020694600F0F0F91CBC5DF814FB0000D9
:10232000F103000070B5044685690068C10601D557
:10233000302600E02026C00707D070BDD4E9012177
:1023400030469047206A401C20626D1EF6D570BD55
:1023500070B5044685690078C00707D170BDD4E91F
:10236000012120209047206A401C20626D1EF6D576
:1023700070BD000070B504460D4621461068AFF3ED
:1023800000802188090502D50F4A7A4402E00E4AEE
:102390007A440E32002104F1240305E000F00F0618
:1023A0000009965D5E54491C0028F7D1207800236F
:1023B000000704D5702D02D009B102231132204646
:1023C000BDE8704000F027B99A0C00002DE9F05FDD
:1023D000894604464FF0000ADFF824B1FB44C0F8F8
:1023E00020A02046E168884700287DD0252806D017
:1023F000D4E901219047206A401C2062F1E70025C2
:102400005F462046E16888472028064607DB312ED4
:1024100005D2B81910F8200C08B10543F1E7A80758
:1024200001D525F00405C4F81CA00027C4F818A0A5
:102430002A2E09D0304600F0BBF938B304EB8708E8
:10244000303EC8F8186019E059F8041B204604EB28
:1024500087029161E1688847012F064618D1E0693B
:10246000002820DA25F020051DE0D8F8180000EB40
:10247000800006EB40003038C8F818002046E168BC
:102480008847064600F094F90028EED1012F0AD0C3
:102490002E2E08D12046E16888477F1C0646022F71
:1024A00045F02005C4DBA069002803DA404245F06E
:1024B0000105A061E80701D025F01005A6B1A6F13D
:1024C0004100192802D8203645F400654A463146B5
:1024D000204625604D46FDF765FE60B1012807D016
:1024E000ED1D25F0070000E007E000F1080978E79E
:1024F00005F1040975E730467AE7206ABDE8F09FE8
:10250000700C000030B505460B462A4613F8014B07
:1025100012F8010B08B1A042F8D01CB1002802D07B
:102520006D1CF1E7284630BD10B5431C02E010F8E1
:10253000011B71B18107FAD14FF0013202C88C1A28
:102540008C4314EAC211F9D0C01A0A0603D0C01E87
:1025500010BDC01A10BD0A0401D0801E10BD0902B2
:10256000FCD0401E10BD10B5203AC0F00B80B1E881
:102570001850203AA0E81850B1E81850A0E81850B8
:10258000BFF4F5AF5FEA027C24BFB1E81850A0E8C1
:10259000185044BF18C918C0BDE810405FEA827CDB
:1025A00024BF51F8043B40F8043B08BF7047D207F2
:1025B00028BF31F8023B48BF11F8012B28BF20F893
:1025C000023B48BF00F8012B70474FF0000204297E
:1025D000C0F0128010F0030C00F09580CCF1040CD8
:1025E000BCF1020F18BF00F8012BA8BF20F8022B86
:1025F000A1EB0C0100F087B85FEAC17C24BF00F8B2
:10260000012B00F8012B48BF00F8012B70477047E1
:102610007047704770472DE9F0470D46994692463E
:10262000044600F124080168880604D5E06921F019
:102630001001216000E00120A84201DD471B00E0FD
:102640000027A1697A1902EB0900081AA061207815
:10265000C00602D42046FFF765FE002608E0D4E954
:1026600001211AF806009047206A401C761C20625F
:102670004E45F4DB2078C0060AD52046FFF752FE0F
:1026800006E0D4E9012130209047206A401C2062F6
:10269000381EA7F10107F4DC07E0D4E9012118F89E
:1026A00005009047206A401C2062281EA5F1010504
:1026B000F3DC2046FFF74CFE2078000602D502200E
:1026C000BDE8F0870120FBE701694A1C0261087838
:1026D000704700B58FB0CDE9013100210591054962
:1026E0007944CDE9031011466846FFF76FFE0FB03D
:1026F00000BD0000E5FFFFFF0A6802F8010B0A6059
:1027000070474FF0000200B51346944696462039B4
:1027100022BFA0E80C50A0E80C50B1F12001BFF49A
:10272000F7AF090728BFA0E80C5048BF0CC05DF800
:1027300004EB890028BF40F8042B08BF704748BF4E
:1027400020F8022B11F0804F18BF00F8012B7047C2
:10275000754600F029F8AE4605006946534620F05C
:102760000700854618B020B5FDF742FDBDE82040C2
:102770004FF000064FF000074FF000084FF0000B3D
:1027800021F00701AC46ACE8C009ACE8C009ACE8F0
:10279000C009ACE8C0098D4670470446AFF300801D
:1027A0002046FDF711FD0000004870478C01002015
:1027B00030380A2801D201207047002070470000FD
:1027C00010B591EA030F48BF83F0004300F14A833C
:1027D000841A71EB030C05D2121943EB0C03001B96
:1027E00061EB0C01DFF824E14FEA1154A4EB135C18
:1027F0001EEA430F18BF9EEA445F73D023EA0E031C
:10280000DCF1200E21EA045143F4801332D322FA82
:102810000CFE10EB0E0023FA0CFE41EB0E01CCF186
:10282000200E03FA0EFE10EB0E0051F10001B1F57F
:10283000801FCCF1200E32D201EB045112FA0EF2BD
:10284000BDE8104058BF7047401C38BF5FEA4202E5
:1028500018BF7047002814BF20F0010041F10001AB
:102860004FEA410313F5001F38BF7047A1F1C04183
:1028700000F0DEBA012A43EB0302ACF1200CDCF1DC
:102880001F0E32BF4FF0000E23FA0CF310EB0300C3
:1028900041EB0451B4EB115FD0D0A1EB045101F531
:1028A000801149085FEA300001EB04510ED350F16A
:1028B000000038BF12FA0EFE08D1BDE81040C9E78B
:1028C000401C38BF5FEA4202CAD1C3E7BDE81040EE
:1028D0004FEA410313F5001F38BF7047A1F1C04113
:1028E00000F0A6BA9EEA445F08D011EA5E0FBDE888
:1028F000104004BF01F0004100207047BDE81040C7
:1029000070B500F047FA00BF64FBBE3E0000E0FF78
:102910002DE9C04130B4DFF8A0C23CEA111418BF61
:102920003CEA131400F0EC8081EA03051CEA111460
:1029300044EAD57418BF1CEA131500F0C780A4EB55
:1029400005044FF0004545EAC12145EAC32341EAA9
:10295000505143EA525304F17F74994204F5003414
:102960004FEAC0204FEAC22208BF904200F09C808C
:102970004FEA13650FF24016765D4FEA134506FBEA
:1029800005F7C7F1807706FB07F74FEAD737A7FBB4
:1029900003687642C8F58038A7FB06CE38BFA8F199
:1029A000010807FB08E64FF0000EA6FB028CE6FBD1
:1029B00003CEDCF1000CCEF1004E38BFAEF1010EBB
:1029C000A6FB0C584FF000074FF00005E6FB0E8702
:1029D000A1FB08C6A0FB07CE16EB0E0645F10005CD
:1029E000E1FB076515F1E04E7EBFA4F580345FEA98
:1029F00046066D4116F1800745F100054FEA17279D
:102A00004FEA066647EA0567A6F1DE46B6F1805F43
:102A10004FEA15251FD9384624F0010C05EBC47187
:102A2000BCF1FE6F01EB0C1102D8F0BCBDE80081D7
:102A300024425CBF01F5801E9EEAC47F02D4F0BC34
:102A4000BDE80081244238D4F0BCA1F1C041BDE80A
:102A5000004100F0EDB94FEAD22242EA43524FEA78
:102A6000D323A7FB02864FEAD02040EA415007FB60
:102A700003661EEA0E0F4FEAD12105FB026658BF1E
:102A8000A6EB0056B6EB00564FEA520E4EEAC37E56
:102A900018EB0E0E56EB530EBDD518EB02085E4137
:102AA0007F1C55F10005B6E74FF480154FF0000785
:102AB0004FF000064FF00008ADE7F0BC4FF000000B
:102AC00001F1C04101F00041BDE8008111EA0C1F95
:102AD0000CEA131500D00CE013EA0C1F00F025805F
:102AE0004FF00000F0BC81EA030101F00041BDE8B5
:102AF0000081F0BC81EA0301BDE8004100F098B913
:102B0000F0BCBDE8004170B500F044F9097EFC3E20
:102B100000F007B881EA03014FF0000001F0004126
:102B2000704781EA030100F083B9F0BC4FF0000068
:102B30002249BDE800417047FFFDFBF9F7F5F4F2CB
:102B4000F0EEEDEBE9E8E6E4E3E1E0DEDDDBDAD848
:102B5000D7D5D4D3D1D0CFCDCCCBCAC8C7C6C5C4A6
:102B6000C2C1C0BFBEBDBCBBBAB9B8B7B6B5B4B3BD
:102B7000B2B1B0AFAEADACABAAA9A8A8A7A6A5A4A8
:102B8000A3A3A2A1A09F9F9E9D9C9C9B9A9999986C
:102B90009797969595949393929191908F8F8E8E0F
:102BA0008D8C8C8B8B8A898988888787868585849C
:102BB00084838382828181800000FF070000F87F88
:102BC0004FEA1153A3F58063D3F11E03A8BFD3F1DD
:102BD000200C08DB4FF0004242EAC12252EA505278
:102BE00032FA03F0704709420BD4102BC4BF002007
:102BF000704703F5787CBCF1FF3F05D04FF0FF3004
:102C000070474FF00000704770B500F0C3F800BF88
:102C10004992248000207047F0E7B0FA80F310FA60
:102C200003F10AD0C3F11D0303F580634FEA41505D
:102C30004FEA035202EBD12170474FF0000070477A
:102C4000DFF848C170B51CEA111E1EBF1CEA13153F
:102C50009EEA0C0F95EA0C0F00F06F8081EA0304E6
:102C600023EA4C134EEAD47E21EA4C1141F4801140
:102C700043F48013AE44A1FB024CA0FB0365AEF10C
:102C80007F7E361955EB0C05A1FB034C4CF100037C
:102C9000A0FB021C16EB0C06654153F10003094230
:102CA00018BF46F0010613F4007F0BD14FEA033141
:102CB0004FEA0530340341EA155140EA16506FF0EF
:102CC00003020AE04FEAC3214FEAC520F40241EAB9
:102CD000555140EA56506FF0020202EB2E4201EBD2
:102CE000025585EACE710AD05FEA440C18BF24F081
:102CF000004450F1000041F1000120EAD47040F29C
:102D0000FE7C624500D270BDA84214BF4FF08044E3
:102D10004FF04044002E08BF0024BEF1806FA8BFD2
:102D2000A1F1C041BDE8704080F282804FF0000008
:102D300001F1C04101F0004170479EEA0C0F0CEA1E
:102D4000131518BF95EA0C0F06D04FF0000081EA6A
:102D5000030E0EF0004170BD00F01CF88900013E2A
:102D600000F007B800F009B84FEA430C5FEA5C5C7A
:102D700008D081EA030100F05BB84FEA410C5FEA3A
:102D80005C5CF6D14FF00000014970470000FF077E
:102D90000000F87F0EF1020E2EF0030E5EF8046BB9
:102DA000364205D4012A43EB030515F5001F12D85E
:102DB000012841EB010C1CF5001F0CD80ED14FEA85
:102DC000D17C15F5001F0CEB4C0C0CF1020C08BF6C
:102DD0004CEBD37C04E04FF0080C01E04FEAD37CCD
:102DE0000CEB4C0526FA05F606F00706B6F1040CC6
:102DF00006D20EEB860CBDE870404CF0010C60472B
:102E0000DFE80CF0090B02024FF000414FF0000028
:102E1000A1F5002170BD19461046012851EB0104AF
:102E200018BFD4F5001484BF002001F0004170BD2C
:102E30000808A0F500114FEA3101704791EA030F2D
:102E400010B581F000413FF5C3AC83F0004300F0C2
:102E500009B8000010B591EA030F48BF83F00043A2
:102E60003FF5B6AC841A71EB030C07D212198CF043
:102E7000004C43EB0C03001B61EB0C01DFF8A4E1F9
:102E80004FEA1154A4EB135C1EEA430F18BF9EEAED
:102E9000445F00F0B08023EA6E03524221EA0451FD
:102EA000C3EB6E0338BF5B1EDCF1200E25D322FA84
:102EB0000CFE10EB0E0043FA0CFE41EB0E01CCF1C0
:102EC000200E03FA0EFE10EB0E0051F10001CCF1C2
:102ED000200E29D412FA0EF201EB0451BDE8104085
:102EE00058BF7047401C1CBFB2F1004F704700280C
:102EF0000CBF491C20F00100704712EB020E43EB9F
:102F0000030218BF4FF0010E4EEA4202ACF1200C52
:102F1000DCF11E0E54D943FA0CFE10EB0E0051F1F9
:102F2000FF31CCF11E0ED5D50EF1010E12FA0EFEB8
:102F3000404141EB010101EB445C5FEA5C5C10D96C
:102F400010EBDE7001EB045138BFBEF1004FBDE85D
:102F5000104018BF704700280CBF491C20F001002A
:102F6000704730D24FEAD42C11F5001124F40064DC
:102F70001BD0B1FA81F20B3AA41AA41ED2F120039D
:102F8000914030FA03F31943904001EBCC71002CCF
:102F900001EB0451BDE81040A8BF704701F1C041EA
:102FA0004FF0000001F000417047B0FA80F310FAD2
:102FB00003F100D110BDE41A173C4805C90AE4E743
:102FC00001EB045110BD491001EB0451BDE8104064
:102FD0004FEA300002E04FF0000170474A0008BF9E
:102FE0000042F8D0B2F5001F28BF704701F0004141
:102FF0004FF0000070479EEA445F07D011EA5E0F71
:10300000BDE8104004BF002100207047BDE810401B
:1030100070B5FFF7BFFE00BF40DFF63E83F0004112
:10302000104670470000E0FF303132333435363718
:1030300038394142434445464030580030313233FC
:1030400034353637383961626364656640307800FC
:103050000400000800000000000000020001000061
:103060001000000084300008000000203C00000038
:103070006C010008C03000083C000020B4070000CC
:10308000880100080000000000A24A0400000000BF
:103090000000000001020304060708090000000008
:1030A00001020304010203040607080902040608DA
:1030B000010000000000000000000000000000000F
:0400000508000131BD
:00000001FF
